{
  "_format": "hh-sol-artifact-1",
  "contractName": "GovernanceToken",
  "sourceName": "contracts/GovernanceToken.sol",
  "abi": [
    {
      "inputs": [
        {
          "internalType": "address",
          "name": "_treasury",
          "type": "address"
        }
      ],
      "stateMutability": "nonpayable",
      "type": "constructor"
    },
    {
      "anonymous": false,
      "inputs": [
        {
          "indexed": true,
          "internalType": "address",
          "name": "owner",
          "type": "address"
        },
        {
          "indexed": true,
          "internalType": "address",
          "name": "spender",
          "type": "address"
        },
        {
          "indexed": false,
          "internalType": "uint256",
          "name": "value",
          "type": "uint256"
        }
      ],
      "name": "Approval",
      "type": "event"
    },
    {
      "anonymous": false,
      "inputs": [
        {
          "indexed": true,
          "internalType": "address",
          "name": "from",
          "type": "address"
        },
        {
          "indexed": false,
          "internalType": "uint256",
          "name": "amount",
          "type": "uint256"
        }
      ],
      "name": "TokensBurned",
      "type": "event"
    },
    {
      "anonymous": false,
      "inputs": [
        {
          "indexed": true,
          "internalType": "address",
          "name": "buyer",
          "type": "address"
        },
        {
          "indexed": false,
          "internalType": "uint256",
          "name": "ethAmount",
          "type": "uint256"
        },
        {
          "indexed": false,
          "internalType": "uint256",
          "name": "tokenAmount",
          "type": "uint256"
        }
      ],
      "name": "TokensPurchased",
      "type": "event"
    },
    {
      "anonymous": false,
      "inputs": [
        {
          "indexed": true,
          "internalType": "address",
          "name": "from",
          "type": "address"
        },
        {
          "indexed": true,
          "internalType": "address",
          "name": "to",
          "type": "address"
        },
        {
          "indexed": false,
          "internalType": "uint256",
          "name": "value",
          "type": "uint256"
        }
      ],
      "name": "Transfer",
      "type": "event"
    },
    {
      "inputs": [],
      "name": "TOKEN_PRICE",
      "outputs": [
        {
          "internalType": "uint256",
          "name": "",
          "type": "uint256"
        }
      ],
      "stateMutability": "view",
      "type": "function"
    },
    {
      "inputs": [
        {
          "internalType": "address",
          "name": "",
          "type": "address"
        },
        {
          "internalType": "address",
          "name": "",
          "type": "address"
        }
      ],
      "name": "allowance",
      "outputs": [
        {
          "internalType": "uint256",
          "name": "",
          "type": "uint256"
        }
      ],
      "stateMutability": "view",
      "type": "function"
    },
    {
      "inputs": [
        {
          "internalType": "address",
          "name": "spender",
          "type": "address"
        },
        {
          "internalType": "uint256",
          "name": "value",
          "type": "uint256"
        }
      ],
      "name": "approve",
      "outputs": [
        {
          "internalType": "bool",
          "name": "",
          "type": "bool"
        }
      ],
      "stateMutability": "nonpayable",
      "type": "function"
    },
    {
      "inputs": [
        {
          "internalType": "address",
          "name": "",
          "type": "address"
        }
      ],
      "name": "balanceOf",
      "outputs": [
        {
          "internalType": "uint256",
          "name": "",
          "type": "uint256"
        }
      ],
      "stateMutability": "view",
      "type": "function"
    },
    {
      "inputs": [
        {
          "internalType": "uint256",
          "name": "value",
          "type": "uint256"
        }
      ],
      "name": "burn",
      "outputs": [
        {
          "internalType": "bool",
          "name": "",
          "type": "bool"
        }
      ],
      "stateMutability": "nonpayable",
      "type": "function"
    },
    {
      "inputs": [
        {
          "internalType": "address",
          "name": "from",
          "type": "address"
        },
        {
          "internalType": "uint256",
          "name": "value",
          "type": "uint256"
        }
      ],
      "name": "burnFrom",
      "outputs": [
        {
          "internalType": "bool",
          "name": "",
          "type": "bool"
        }
      ],
      "stateMutability": "nonpayable",
      "type": "function"
    },
    {
      "inputs": [],
      "name": "buyTokens",
      "outputs": [],
      "stateMutability": "payable",
      "type": "function"
    },
    {
      "inputs": [
        {
          "internalType": "uint256",
          "name": "cflrAmount",
          "type": "uint256"
        }
      ],
      "name": "calculateTokenAmount",
      "outputs": [
        {
          "internalType": "uint256",
          "name": "",
          "type": "uint256"
        }
      ],
      "stateMutability": "pure",
      "type": "function"
    },
    {
      "inputs": [],
      "name": "decimals",
      "outputs": [
        {
          "internalType": "uint8",
          "name": "",
          "type": "uint8"
        }
      ],
      "stateMutability": "view",
      "type": "function"
    },
    {
      "inputs": [],
      "name": "getOwnerBalance",
      "outputs": [
        {
          "internalType": "uint256",
          "name": "",
          "type": "uint256"
        }
      ],
      "stateMutability": "view",
      "type": "function"
    },
    {
      "inputs": [],
      "name": "getTokenPrice",
      "outputs": [
        {
          "internalType": "uint256",
          "name": "",
          "type": "uint256"
        }
      ],
      "stateMutability": "pure",
      "type": "function"
    },
    {
      "inputs": [],
      "name": "name",
      "outputs": [
        {
          "internalType": "string",
          "name": "",
          "type": "string"
        }
      ],
      "stateMutability": "view",
      "type": "function"
    },
    {
      "inputs": [],
      "name": "owner",
      "outputs": [
        {
          "internalType": "address",
          "name": "",
          "type": "address"
        }
      ],
      "stateMutability": "view",
      "type": "function"
    },
    {
      "inputs": [
        {
          "internalType": "address",
          "name": "_treasury",
          "type": "address"
        }
      ],
      "name": "setTreasury",
      "outputs": [],
      "stateMutability": "nonpayable",
      "type": "function"
    },
    {
      "inputs": [],
      "name": "symbol",
      "outputs": [
        {
          "internalType": "string",
          "name": "",
          "type": "string"
        }
      ],
      "stateMutability": "view",
      "type": "function"
    },
    {
      "inputs": [],
      "name": "totalSupply",
      "outputs": [
        {
          "internalType": "uint256",
          "name": "",
          "type": "uint256"
        }
      ],
      "stateMutability": "view",
      "type": "function"
    },
    {
      "inputs": [
        {
          "internalType": "address",
          "name": "to",
          "type": "address"
        },
        {
          "internalType": "uint256",
          "name": "value",
          "type": "uint256"
        }
      ],
      "name": "transfer",
      "outputs": [
        {
          "internalType": "bool",
          "name": "",
          "type": "bool"
        }
      ],
      "stateMutability": "nonpayable",
      "type": "function"
    },
    {
      "inputs": [
        {
          "internalType": "address",
          "name": "from",
          "type": "address"
        },
        {
          "internalType": "address",
          "name": "to",
          "type": "address"
        },
        {
          "internalType": "uint256",
          "name": "value",
          "type": "uint256"
        }
      ],
      "name": "transferFrom",
      "outputs": [
        {
          "internalType": "bool",
          "name": "",
          "type": "bool"
        }
      ],
      "stateMutability": "nonpayable",
      "type": "function"
    },
    {
      "inputs": [],
      "name": "treasury",
      "outputs": [
        {
          "internalType": "address",
          "name": "",
          "type": "address"
        }
      ],
      "stateMutability": "view",
      "type": "function"
    },
    {
      "inputs": [],
      "name": "withdraw",
      "outputs": [],
      "stateMutability": "nonpayable",
      "type": "function"
    }
  ],
  "bytecode": "0x60803461007e57601f610ca438819003918201601f19168301916001600160401b038311848410176100835780849260209460405283398101031261007e57516001600160a01b0381169081900361007e5760018060a01b031933816001541617600155600254161760025560008055604051610c0a908161009a8239f35b600080fd5b634e487b7160e01b600052604160045260246000fdfe6040608081526004908136101561001557600080fd5b600091823560e01c806306fdde03146109c5578063095ea7b31461095757806318160ddd1461093a57806323b872dd14610869578063313ce5671461084d5780633ccfd60b146107c757806342966c681461072d5780634b94f50e146101e4578063590791f2146106fa57806361d027b3146106d157806370a082311461069957806379cc6790146105b45780638da5cb5b1461058b57806395d89b411461054c578063a24bcf46146104f4578063a9059cbb14610465578063d0febe4c1461020a578063d2d8cb67146101e4578063dd62ed3e1461019c5763f0f44260146100fd57600080fd5b3461019857602036600319011261019857610116610a97565b6001546001600160a01b0391906101309083163314610b7c565b169182156101555750506bffffffffffffffffffffffff60a01b600254161760025580f35b906020606492519162461bcd60e51b8352820152601860248201527f496e76616c6964207472656173757279206164647265737300000000000000006044820152fd5b8280fd5b503461019857816003193601126101985760209282916101ba610a97565b6101c2610ab2565b6001600160a01b03918216845291865283832091168252845220549051908152f35b5050346102065781600319360112610206576020905166038d7ea4c680008152f35b5080fd5b509082600319360112610198573415610422576002546001600160a01b03908116156103ec57670de0b6b3a764000080340290348204036103d95766038d7ea4c680009004801561038a57848080938361026683958454610ac8565b8355338352600360205286832061027e828254610ac8565b9055865181815283600080516020610bb583398151915260203393a386519034825260208201527f8fafebcaf9d154343dad25669bfa277f4fbacd7ac6b0c4fed522580e040a0f33873392a23490600254165af13d156103855767ffffffffffffffff3d81811161037257835191601f8201601f19908116603f011683019081118382101761035f57845281528460203d92013e5b1561031c578280f35b906020606492519162461bcd60e51b8352820152601b60248201527f5472616e7366657220746f207472656173757279206661696c656400000000006044820152fd5b634e487b7160e01b875260418652602487fd5b634e487b7160e01b865260418552602486fd5b610313565b825162461bcd60e51b8152602081860152602360248201527f546f6b656e20616d6f756e74206d75737420626520677265617465722074686160448201526206e20360ec1b6064820152608490fd5b634e487b7160e01b855260118452602485fd5b815162461bcd60e51b8152602081850152601060248201526f151c99585cdd5c9e481b9bdd081cd95d60821b6044820152606490fd5b906020606492519162461bcd60e51b8352820152601c60248201527f4d7573742073656e642043464c5220746f2062757920746f6b656e73000000006044820152fd5b505034610206578060031936011261020657602091610482610a97565b82602435913384526003865261049d83838620541015610aeb565b338452600386528184206104b2848254610b2e565b90556001600160a01b031680845260038652922080546104d3908390610ac8565b90558251908152600080516020610bb5833981519152843392a35160018152f35b50823461054957602036600319011261054957670de0b6b3a76400008235818102939181159185041417156105365760208366038d7ea4c68000865191048152f35b634e487b7160e01b825260119052602490fd5b80fd5b5050346102065781600319360112610206576105879061056a610a18565b906005825264564344414f60d81b60208301525191829182610a4e565b0390f35b50503461020657816003193601126102065760015490516001600160a01b039091168152602090f35b50346101985781600319360112610198577ffd38818f5291bf0bb3a2a48aadc06ba8757865d1dabd804585338aab3009dcb66105ee610a97565b916024359260018060a01b03169283865260209586926003845261061783888420541015610aeb565b858252808452868220338352845261063483888420541015610b3b565b85825260038452868220610649848254610b2e565b905585825283528581203382528352858120610666838254610b2e565b9055610673828254610b2e565b815584600080516020610bb5833981519152848851858152a38451908152a25160018152f35b5050346102065760203660031901126102065760209181906001600160a01b036106c1610a97565b1681526003845220549051908152f35b50503461020657816003193601126102065760025490516001600160a01b039091168152602090f35b5050346102065781600319360112610206576001546001600160a01b031682526003602090815291819020549051908152f35b50913461054957602092836003193601126102065735903381526003845261075a82848320541015610aeb565b3381526003845282812061076f838254610b2e565b905561077c828254610b2e565b81558251828152600080516020610bb5833981519152853392a381519081527ffd38818f5291bf0bb3a2a48aadc06ba8757865d1dabd804585338aab3009dcb6833392a25160018152f35b50346101985782600319360112610198576001546001600160a01b03166107ef338214610b7c565b47918215610813575083808093819382f115610809575080f35b51903d90823e3d90fd5b606490602085519162461bcd60e51b835282015260146024820152734e6f2066756e647320746f20776974686472617760601b6044820152fd5b5050346102065781600319360112610206576020905160128152f35b503461019857606036600319011261019857610883610a97565b92600080516020610bb583398151915261089b610ab2565b6044358560018060a01b03809816948581526020988994600386526108c585858520541015610aeb565b87835288865283832033845286526108e285858520541015610b3b565b878352600386528383206108f7868254610b2e565b9055169687825260038552828220610910858254610ac8565b9055868252845281812033825284522061092b828254610b2e565b90558551908152a35160018152f35b505034610206578160031936011261020657602091549051908152f35b5034610198578160031936011261019857602092610973610a97565b918360243592839233825287528181209460018060a01b0316948582528752205582519081527f8c5be1e5ebec7d5bd14f71427d1e84f3dd0314c0f7b2291e5b200ac8c7c3b925843392a35160018152f35b505034610206578160031936011261020657610587906109e3610a18565b90601782527f56432044414f20476f7665726e616e636520546f6b656e00000000000000000060208301525191829182610a4e565b604051906040820182811067ffffffffffffffff821117610a3857604052565b634e487b7160e01b600052604160045260246000fd5b6020808252825181830181905290939260005b828110610a8357505060409293506000838284010152601f8019910116010190565b818101860151848201604001528501610a61565b600435906001600160a01b0382168203610aad57565b600080fd5b602435906001600160a01b0382168203610aad57565b91908201809211610ad557565b634e487b7160e01b600052601160045260246000fd5b15610af257565b60405162461bcd60e51b8152602060048201526014602482015273496e73756666696369656e742062616c616e636560601b6044820152606490fd5b91908203918211610ad557565b15610b4257565b60405162461bcd60e51b8152602060048201526012602482015271105b1b1bddd85b98d948195e18d95959195960721b6044820152606490fd5b15610b8357565b60405162461bcd60e51b81526020600482015260096024820152682737ba1037bbb732b960b91b6044820152606490fdfeddf252ad1be2c89b69c2b068fc378daa952ba7f163c4a11628f55a4df523b3efa26469706673582212203e4ec3a9bec1510c38db56bb1bd14b3ecc8f376d88c6ddf3e3856d33281707a664736f6c63430008130033",
  "linkReferences": {},
  "deployedLinkReferences": {}
}