{
  "_format": "hh-sol-artifact-1",
  "contractName": "Treasury",
  "sourceName": "contracts/Treasury.sol",
  "abi": [
    {
      "inputs": [
        {
          "internalType": "string",
          "name": "_name",
          "type": "string"
        },
        {
          "internalType": "address",
          "name": "_token",
          "type": "address"
        }
      ],
      "stateMutability": "nonpayable",
      "type": "constructor"
    },
    {
      "anonymous": false,
      "inputs": [
        {
          "indexed": true,
          "internalType": "address",
          "name": "from",
          "type": "address"
        },
        {
          "indexed": false,
          "internalType": "uint256",
          "name": "amount",
          "type": "uint256"
        },
        {
          "indexed": false,
          "internalType": "string",
          "name": "description",
          "type": "string"
        }
      ],
      "name": "FundsDeposited",
      "type": "event"
    },
    {
      "anonymous": false,
      "inputs": [
        {
          "indexed": true,
          "internalType": "address",
          "name": "to",
          "type": "address"
        },
        {
          "indexed": false,
          "internalType": "uint256",
          "name": "amount",
          "type": "uint256"
        },
        {
          "indexed": false,
          "internalType": "string",
          "name": "description",
          "type": "string"
        }
      ],
      "name": "FundsWithdrawn",
      "type": "event"
    },
    {
      "anonymous": false,
      "inputs": [
        {
          "indexed": true,
          "internalType": "address",
          "name": "previousOwner",
          "type": "address"
        },
        {
          "indexed": true,
          "internalType": "address",
          "name": "newOwner",
          "type": "address"
        }
      ],
      "name": "OwnershipTransferred",
      "type": "event"
    },
    {
      "anonymous": false,
      "inputs": [
        {
          "indexed": true,
          "internalType": "address",
          "name": "user",
          "type": "address"
        },
        {
          "indexed": false,
          "internalType": "uint256",
          "name": "tokenAmount",
          "type": "uint256"
        },
        {
          "indexed": false,
          "internalType": "uint256",
          "name": "cflrReturned",
          "type": "uint256"
        }
      ],
      "name": "Refunded",
      "type": "event"
    },
    {
      "anonymous": false,
      "inputs": [
        {
          "indexed": false,
          "internalType": "string",
          "name": "name",
          "type": "string"
        },
        {
          "indexed": false,
          "internalType": "address",
          "name": "creator",
          "type": "address"
        }
      ],
      "name": "TreasuryCreated",
      "type": "event"
    },
    {
      "inputs": [],
      "name": "REFUND_RATE_DEN",
      "outputs": [
        {
          "internalType": "uint256",
          "name": "",
          "type": "uint256"
        }
      ],
      "stateMutability": "view",
      "type": "function"
    },
    {
      "inputs": [],
      "name": "REFUND_RATE_NUM",
      "outputs": [
        {
          "internalType": "uint256",
          "name": "",
          "type": "uint256"
        }
      ],
      "stateMutability": "view",
      "type": "function"
    },
    {
      "inputs": [],
      "name": "TOKEN_PRICE",
      "outputs": [
        {
          "internalType": "uint256",
          "name": "",
          "type": "uint256"
        }
      ],
      "stateMutability": "view",
      "type": "function"
    },
    {
      "inputs": [
        {
          "internalType": "string",
          "name": "description",
          "type": "string"
        }
      ],
      "name": "deposit",
      "outputs": [],
      "stateMutability": "payable",
      "type": "function"
    },
    {
      "inputs": [],
      "name": "getBalance",
      "outputs": [
        {
          "internalType": "uint256",
          "name": "",
          "type": "uint256"
        }
      ],
      "stateMutability": "view",
      "type": "function"
    },
    {
      "inputs": [],
      "name": "getTreasuryInfo",
      "outputs": [
        {
          "internalType": "string",
          "name": "_name",
          "type": "string"
        },
        {
          "internalType": "uint256",
          "name": "_balance",
          "type": "uint256"
        },
        {
          "internalType": "uint256",
          "name": "_totalFunds",
          "type": "uint256"
        },
        {
          "internalType": "address",
          "name": "_owner",
          "type": "address"
        }
      ],
      "stateMutability": "view",
      "type": "function"
    },
    {
      "inputs": [],
      "name": "name",
      "outputs": [
        {
          "internalType": "string",
          "name": "",
          "type": "string"
        }
      ],
      "stateMutability": "view",
      "type": "function"
    },
    {
      "inputs": [],
      "name": "owner",
      "outputs": [
        {
          "internalType": "address",
          "name": "",
          "type": "address"
        }
      ],
      "stateMutability": "view",
      "type": "function"
    },
    {
      "inputs": [
        {
          "internalType": "uint256",
          "name": "tokenAmount",
          "type": "uint256"
        }
      ],
      "name": "refund",
      "outputs": [],
      "stateMutability": "nonpayable",
      "type": "function"
    },
    {
      "inputs": [
        {
          "internalType": "address",
          "name": "_token",
          "type": "address"
        }
      ],
      "name": "setToken",
      "outputs": [],
      "stateMutability": "nonpayable",
      "type": "function"
    },
    {
      "inputs": [],
      "name": "token",
      "outputs": [
        {
          "internalType": "contract IGovernanceToken",
          "name": "",
          "type": "address"
        }
      ],
      "stateMutability": "view",
      "type": "function"
    },
    {
      "inputs": [],
      "name": "totalFunds",
      "outputs": [
        {
          "internalType": "uint256",
          "name": "",
          "type": "uint256"
        }
      ],
      "stateMutability": "view",
      "type": "function"
    },
    {
      "inputs": [
        {
          "internalType": "address",
          "name": "newOwner",
          "type": "address"
        }
      ],
      "name": "transferOwnership",
      "outputs": [],
      "stateMutability": "nonpayable",
      "type": "function"
    },
    {
      "inputs": [
        {
          "internalType": "address payable",
          "name": "_to",
          "type": "address"
        },
        {
          "internalType": "uint256",
          "name": "_amount",
          "type": "uint256"
        },
        {
          "internalType": "string",
          "name": "_description",
          "type": "string"
        }
      ],
      "name": "withdrawFunds",
      "outputs": [],
      "stateMutability": "nonpayable",
      "type": "function"
    },
    {
      "stateMutability": "payable",
      "type": "receive"
    }
  ],
  "bytecode": "0x604060808152346200029a5762000f2490813803806200001f816200029f565b938439820181838203126200029a5782516001600160401b0393908481116200029a57810191601f908082850112156200029a578351958087116200028457602096601f19946200007685830187168a016200029f565b96828852898801948a84830101116200029a5789928584620000999301620002c5565b01516001600160a01b03811691908290036200029a578551908111620002845760019081548281811c9116801562000279575b8a821014620002635785811162000218575b508885821160011462000197579260609694928260008051602062000f048339815191529a9b93620001609a98966000916200018b575b50600019600383901b1c191690821b1790555b600280546001600160a01b03199081163317909155816200017b575b505088519687958a8752518093818c89015288880190620002c5565b339085015201168101030190a151610c199081620002eb8239f35b6003541617600355388062000144565b90508801513862000115565b86821690836000528a6000209160005b8181106200020257509383620001609a989693829360008051602062000f048339815191529d9e9660609c9a9810620001e8575b5050811b01905562000128565b8a015160001960f88460031b161c191690553880620001db565b8a830151845592850192918c01918c01620001a7565b82600052896000208680840160051c8201928c851062000259575b0160051c019083905b8281106200024c575050620000de565b600081550183906200023c565b9250819262000233565b634e487b7160e01b600052602260045260246000fd5b90607f1690620000cc565b634e487b7160e01b600052604160045260246000fd5b600080fd5b6040519190601f01601f191682016001600160401b038111838210176200028457604052565b60005b838110620002d95750506000910152565b8181015183820152602001620002c856fe60406080815260048036101561007b575b50361561001c57600080fd5b61002834600054610b76565b600055600e8151913483528060208401528201526d111a5c9958dd0819195c1bdcda5d60921b60608201527f760c7a2378a4ae64d649fb2461347a9d495bf652e73d4315f1bbd6b7962602a860803392a2005b600090813560e01c90816306fdde031461094d57816312065fe014610932578163144fa6d71461089b578163230fdb251461087f578163278ecde1146104db57816376065851146104bf5781638da5cb5b14610496578163968ed600146104795781639b81e17e146102fb578163a26e11861461027a578163c293947114610224578163d2d8cb6714610202578163f2fde38b1461014a575063fc0c546a0361001057903461014657816003193601126101465760035490516001600160a01b039091168152602090f35b5080fd5b839150346101fe5760203660031901126101fe576001600160a01b038135818116939192908490036101fa5760025492831691610188833314610b3e565b84156101c757505082907f8be0079c531659141344cd1fd0a4f28419497f9722a3daafe3b4186f6b6457e08580a36001600160a01b0319161760025580f35b906020606492519162461bcd60e51b8352820152600d60248201526c24b73b30b634b21037bbb732b960991b6044820152fd5b8480fd5b8280fd5b8284346101465781600319360112610146576020905166038d7ea4c680008152f35b8284346101465781600319360112610146579054600254610268929147916001600160a01b0316906102546109ba565b938051958695608087526080870190610aa2565b93602086015284015260608301520390f35b83915060203660031901126101fe5780359067ffffffffffffffff82116102f7576102cc6102f1917f760c7a2378a4ae64d649fb2461347a9d495bf652e73d4315f1bbd6b7962602a893369101610ae2565b6102d7348654610b76565b855583519182913483528560208401523395830190610aa2565b0390a280f35b8380fd5b905082346101fe5760603660031901126101fe576001600160a01b039180358381169291908390036101fa576024359060443567ffffffffffffffff81116104755761034a9036908301610ae2565b9061035b6002549687163314610b3e565b61036b60ff8760a01c1615610b99565b60ff60a01b19958616600160a01b1760025547831161043b5782156103f85750610396828754610bd6565b865585808080858882f1156103ee57906103e183927fd30b68ba794ba733ec10c7ddce3e044482efdaa4c2e6b3d233800535afe5139b94519384938452806020850152830190610aa2565b0390a26002541660025580f35b82513d87823e3d90fd5b606490602085519162461bcd60e51b8352820152601d60248201527f416d6f756e74206d7573742062652067726561746572207468616e20300000006044820152fd5b606490602085519162461bcd60e51b83528201526014602482015273496e73756666696369656e742062616c616e636560601b6044820152fd5b8680fd5b828434610146578160031936011261014657602091549051908152f35b82843461014657816003193601126101465760025490516001600160a01b039091168152602090f35b8284346101465781600319360112610146576020905160648152f35b839150346101fe57602091826003193601126102f7578135916002549361050860ff8660a01c1615610b99565b60ff60a01b19948516600160a01b17600255831561084a5760035483516370a0823160e01b81523381850152602493916001600160a01b03169083818681855afa908115610756579087918a91610819575b50106107d8578451636eb1769f60e11b8152338382015230858201526044919084818481855afa9081156107ce579088918b91610799575b5010610760578389918388518094819363079cc67960e41b835233898401528c8b8401525af190811561075657899161071c575b50156106ef5766038d7ea4c68000860266038d7ea4c67fff19878204016106dd57670de0b6b3a76400009004605a810290808204605a14901517156106dd57606490049384156106ab5747851161066c57505050610625828754610bd6565b865585808080853382f1156103ee57825193845283015233917f2dc8e290002f06fc0085bbca9dfb8b415cf4d1178950c72ff9ee8f4d8878ee669190a26002541660025580f35b90601a7f547265617375727920696e73756666696369656e742043464c520000000000009260649588519562461bcd60e51b8752860152840152820152fd5b9060106f0526566756e642076616c7565203d20360841b9260649588519562461bcd60e51b8752860152840152820152fd5b634e487b7160e01b8952601183528489fd5b600b6064946a109d5c9b8819985a5b195960aa1b939487519562461bcd60e51b8752860152840152820152fd5b90508381813d831161074f575b6107338183610982565b8101031261074b5751801515810361074b57896105c6565b8880fd5b503d610729565b86513d8b823e3d90fd5b50601660649475105b1b1bddd85b98d9481a5b9cdd59999a58da595b9d60521b939487519562461bcd60e51b8752860152840152820152fd5b809250868092503d83116107c7575b6107b28183610982565b810103126107c3578790518b610592565b8980fd5b503d6107a8565b87513d8c823e3d90fd5b50925162461bcd60e51b815292830152601a908201527f496e73756666696369656e7420746f6b656e2062616c616e63650000000000006044820152606490fd5b809250858092503d8311610843575b6108328183610982565b8101031261074b578690518a61055a565b503d610828565b606492519162461bcd60e51b835282015260126024820152710416d6f756e74206d757374206265203e20360741b6044820152fd5b82843461014657816003193601126101465760209051605a8152f35b839150346101fe5760203660031901126101fe5780356001600160a01b0381811693918490036101fa576108d490600254163314610b3e565b82156108f75750506bffffffffffffffffffffffff60a01b600354161760035580f35b906020606492519162461bcd60e51b83528201526015602482015274496e76616c696420746f6b656e206164647265737360581b6044820152fd5b82843461014657816003193601126101465751478152602090f35b82843461014657816003193601126101465761097e9061096b6109ba565b9051918291602083526020830190610aa2565b0390f35b90601f8019910116810190811067ffffffffffffffff8211176109a457604052565b634e487b7160e01b600052604160045260246000fd5b60405190600060019081549182811c90808416938415610a98575b6020948584108114610a845783885287949392918115610a645750600114610a08575b5050610a0692500383610982565b565b60008181527fb10e2d527612073b26eecdfd717e6a320cf44b4afac2b0732d9fcbe2b7fa0cf695935091905b818310610a4c575050610a06935082010138806109f8565b85548884018501529485019487945091830191610a34565b915050610a0694925060ff191682840152151560051b82010138806109f8565b634e487b7160e01b85526022600452602485fd5b91607f16916109d5565b919082519283825260005b848110610ace575050826000602080949584010152601f8019910116010190565b602081830181015184830182015201610aad565b81601f82011215610b395780359067ffffffffffffffff82116109a45760405192610b17601f8401601f191660200185610982565b82845260208383010111610b3957816000926020809301838601378301015290565b600080fd5b15610b4557565b60405162461bcd60e51b81526020600482015260096024820152682737ba1037bbb732b960b91b6044820152606490fd5b91908201809211610b8357565b634e487b7160e01b600052601160045260246000fd5b15610ba057565b60405162461bcd60e51b815260206004820152600e60248201526d1499595b9d1c985b9d0818d85b1b60921b6044820152606490fd5b91908203918211610b835756fea2646970667358221220f439b3b7dfdf4c0b296305b9996bbe0458de82f3969b4df2a305db66c36f28d264736f6c63430008130033431a01c30e6110ee11c1aa937955ea333d99773d2f2ad4a471fb1cb0a6c99daf",
  "linkReferences": {},
  "deployedLinkReferences": {}
}