{
  "_format": "hh-sol-artifact-1",
  "contractName": "VCGovernor",
  "sourceName": "contracts/VCGovernor.sol",
  "abi": [
    {
      "inputs": [
        {
          "internalType": "address",
          "name": "_token",
          "type": "address"
        },
        {
          "internalType": "address",
          "name": "_treasury",
          "type": "address"
        }
      ],
      "stateMutability": "nonpayable",
      "type": "constructor"
    },
    {
      "anonymous": false,
      "inputs": [
        {
          "indexed": true,
          "internalType": "uint256",
          "name": "proposalId",
          "type": "uint256"
        },
        {
          "indexed": true,
          "internalType": "address",
          "name": "proposer",
          "type": "address"
        },
        {
          "indexed": false,
          "internalType": "string",
          "name": "title",
          "type": "string"
        },
        {
          "indexed": false,
          "internalType": "uint256",
          "name": "amount",
          "type": "uint256"
        },
        {
          "indexed": false,
          "internalType": "address",
          "name": "recipient",
          "type": "address"
        }
      ],
      "name": "ProposalCreated",
      "type": "event"
    },
    {
      "anonymous": false,
      "inputs": [
        {
          "indexed": true,
          "internalType": "uint256",
          "name": "proposalId",
          "type": "uint256"
        }
      ],
      "name": "ProposalExecuted",
      "type": "event"
    },
    {
      "anonymous": false,
      "inputs": [
        {
          "indexed": true,
          "internalType": "uint256",
          "name": "proposalId",
          "type": "uint256"
        },
        {
          "indexed": true,
          "internalType": "address",
          "name": "recipient",
          "type": "address"
        },
        {
          "indexed": false,
          "internalType": "uint256",
          "name": "amount",
          "type": "uint256"
        }
      ],
      "name": "ProposalReadyForExecution",
      "type": "event"
    },
    {
      "anonymous": false,
      "inputs": [
        {
          "indexed": true,
          "internalType": "address",
          "name": "voter",
          "type": "address"
        },
        {
          "indexed": true,
          "internalType": "uint256",
          "name": "proposalId",
          "type": "uint256"
        },
        {
          "indexed": false,
          "internalType": "uint8",
          "name": "support",
          "type": "uint8"
        },
        {
          "indexed": false,
          "internalType": "uint256",
          "name": "weight",
          "type": "uint256"
        }
      ],
      "name": "VoteCast",
      "type": "event"
    },
    {
      "anonymous": false,
      "inputs": [
        {
          "indexed": false,
          "internalType": "uint256",
          "name": "delay",
          "type": "uint256"
        },
        {
          "indexed": false,
          "internalType": "uint256",
          "name": "period",
          "type": "uint256"
        },
        {
          "indexed": false,
          "internalType": "uint256",
          "name": "quorum",
          "type": "uint256"
        }
      ],
      "name": "VotingSettingsUpdated",
      "type": "event"
    },
    {
      "inputs": [
        {
          "internalType": "uint256",
          "name": "_proposalId",
          "type": "uint256"
        },
        {
          "internalType": "bool",
          "name": "_support",
          "type": "bool"
        }
      ],
      "name": "castVote",
      "outputs": [],
      "stateMutability": "nonpayable",
      "type": "function"
    },
    {
      "inputs": [
        {
          "internalType": "string",
          "name": "_title",
          "type": "string"
        },
        {
          "internalType": "string",
          "name": "_description",
          "type": "string"
        },
        {
          "internalType": "address",
          "name": "_recipient",
          "type": "address"
        },
        {
          "internalType": "uint256",
          "name": "_amount",
          "type": "uint256"
        }
      ],
      "name": "createProposal",
      "outputs": [
        {
          "internalType": "uint256",
          "name": "",
          "type": "uint256"
        }
      ],
      "stateMutability": "nonpayable",
      "type": "function"
    },
    {
      "inputs": [
        {
          "internalType": "uint256",
          "name": "_proposalId",
          "type": "uint256"
        }
      ],
      "name": "executeProposal",
      "outputs": [],
      "stateMutability": "nonpayable",
      "type": "function"
    },
    {
      "inputs": [
        {
          "internalType": "uint256",
          "name": "_proposalId",
          "type": "uint256"
        }
      ],
      "name": "getProposal",
      "outputs": [
        {
          "internalType": "uint256",
          "name": "id",
          "type": "uint256"
        },
        {
          "internalType": "address",
          "name": "proposer",
          "type": "address"
        },
        {
          "internalType": "string",
          "name": "title",
          "type": "string"
        },
        {
          "internalType": "string",
          "name": "description",
          "type": "string"
        },
        {
          "internalType": "address",
          "name": "recipient",
          "type": "address"
        },
        {
          "internalType": "uint256",
          "name": "amount",
          "type": "uint256"
        },
        {
          "internalType": "uint256",
          "name": "voteStart",
          "type": "uint256"
        },
        {
          "internalType": "uint256",
          "name": "voteEnd",
          "type": "uint256"
        },
        {
          "internalType": "uint256",
          "name": "yesVotes",
          "type": "uint256"
        },
        {
          "internalType": "uint256",
          "name": "noVotes",
          "type": "uint256"
        },
        {
          "internalType": "bool",
          "name": "executed",
          "type": "bool"
        }
      ],
      "stateMutability": "view",
      "type": "function"
    },
    {
      "inputs": [
        {
          "internalType": "uint256",
          "name": "_proposalId",
          "type": "uint256"
        }
      ],
      "name": "getProposalState",
      "outputs": [
        {
          "internalType": "enum VCGovernor.ProposalState",
          "name": "",
          "type": "uint8"
        }
      ],
      "stateMutability": "view",
      "type": "function"
    },
    {
      "inputs": [
        {
          "internalType": "uint256",
          "name": "_proposalId",
          "type": "uint256"
        }
      ],
      "name": "getProposalWithState",
      "outputs": [
        {
          "internalType": "uint256",
          "name": "id",
          "type": "uint256"
        },
        {
          "internalType": "address",
          "name": "proposer",
          "type": "address"
        },
        {
          "internalType": "string",
          "name": "title",
          "type": "string"
        },
        {
          "internalType": "string",
          "name": "description",
          "type": "string"
        },
        {
          "internalType": "address",
          "name": "recipient",
          "type": "address"
        },
        {
          "internalType": "uint256",
          "name": "amount",
          "type": "uint256"
        },
        {
          "internalType": "uint256",
          "name": "voteStart",
          "type": "uint256"
        },
        {
          "internalType": "uint256",
          "name": "voteEnd",
          "type": "uint256"
        },
        {
          "internalType": "uint256",
          "name": "yesVotes",
          "type": "uint256"
        },
        {
          "internalType": "uint256",
          "name": "noVotes",
          "type": "uint256"
        },
        {
          "internalType": "bool",
          "name": "executed",
          "type": "bool"
        },
        {
          "internalType": "enum VCGovernor.ProposalState",
          "name": "state",
          "type": "uint8"
        }
      ],
      "stateMutability": "view",
      "type": "function"
    },
    {
      "inputs": [],
      "name": "governanceToken",
      "outputs": [
        {
          "internalType": "contract GovernanceToken",
          "name": "",
          "type": "address"
        }
      ],
      "stateMutability": "view",
      "type": "function"
    },
    {
      "inputs": [
        {
          "internalType": "uint256",
          "name": "_proposalId",
          "type": "uint256"
        },
        {
          "internalType": "address",
          "name": "_voter",
          "type": "address"
        }
      ],
      "name": "hasVoted",
      "outputs": [
        {
          "internalType": "bool",
          "name": "",
          "type": "bool"
        }
      ],
      "stateMutability": "view",
      "type": "function"
    },
    {
      "inputs": [],
      "name": "owner",
      "outputs": [
        {
          "internalType": "address",
          "name": "",
          "type": "address"
        }
      ],
      "stateMutability": "view",
      "type": "function"
    },
    {
      "inputs": [],
      "name": "proposalCount",
      "outputs": [
        {
          "internalType": "uint256",
          "name": "",
          "type": "uint256"
        }
      ],
      "stateMutability": "view",
      "type": "function"
    },
    {
      "inputs": [
        {
          "internalType": "uint256",
          "name": "",
          "type": "uint256"
        }
      ],
      "name": "proposals",
      "outputs": [
        {
          "internalType": "uint256",
          "name": "id",
          "type": "uint256"
        },
        {
          "internalType": "address",
          "name": "proposer",
          "type": "address"
        },
        {
          "internalType": "string",
          "name": "title",
          "type": "string"
        },
        {
          "internalType": "string",
          "name": "description",
          "type": "string"
        },
        {
          "internalType": "address",
          "name": "recipient",
          "type": "address"
        },
        {
          "internalType": "uint256",
          "name": "amount",
          "type": "uint256"
        },
        {
          "internalType": "uint256",
          "name": "voteStart",
          "type": "uint256"
        },
        {
          "internalType": "uint256",
          "name": "voteEnd",
          "type": "uint256"
        },
        {
          "internalType": "uint256",
          "name": "yesVotes",
          "type": "uint256"
        },
        {
          "internalType": "uint256",
          "name": "noVotes",
          "type": "uint256"
        },
        {
          "internalType": "bool",
          "name": "executed",
          "type": "bool"
        }
      ],
      "stateMutability": "view",
      "type": "function"
    },
    {
      "inputs": [],
      "name": "quorumPercentage",
      "outputs": [
        {
          "internalType": "uint256",
          "name": "",
          "type": "uint256"
        }
      ],
      "stateMutability": "view",
      "type": "function"
    },
    {
      "inputs": [
        {
          "internalType": "address",
          "name": "newOwner",
          "type": "address"
        }
      ],
      "name": "transferOwnership",
      "outputs": [],
      "stateMutability": "nonpayable",
      "type": "function"
    },
    {
      "inputs": [],
      "name": "treasury",
      "outputs": [
        {
          "internalType": "contract Treasury",
          "name": "",
          "type": "address"
        }
      ],
      "stateMutability": "view",
      "type": "function"
    },
    {
      "inputs": [
        {
          "internalType": "uint256",
          "name": "_delay",
          "type": "uint256"
        },
        {
          "internalType": "uint256",
          "name": "_period",
          "type": "uint256"
        },
        {
          "internalType": "uint256",
          "name": "_quorum",
          "type": "uint256"
        }
      ],
      "name": "updateVotingSettings",
      "outputs": [],
      "stateMutability": "nonpayable",
      "type": "function"
    },
    {
      "inputs": [],
      "name": "votingDelay",
      "outputs": [
        {
          "internalType": "uint256",
          "name": "",
          "type": "uint256"
        }
      ],
      "stateMutability": "view",
      "type": "function"
    },
    {
      "inputs": [],
      "name": "votingPeriod",
      "outputs": [
        {
          "internalType": "uint256",
          "name": "",
          "type": "uint256"
        }
      ],
      "stateMutability": "view",
      "type": "function"
    }
  ],
  "bytecode": "0x6080346100a257601f61177938819003918201601f19168301916001600160401b038311848410176100a75780849260409485528339810103126100a257610052602061004b836100bd565b92016100bd565b600060055562093a80600655600a60075560018060a01b03908160018060a01b0319931683600054161760005516816001541617600155339060025416176002556040516116a790816100d28239f35b600080fd5b634e487b7160e01b600052604160045260246000fd5b51906001600160a01b03821682036100a25756fe6080604052600436101561001257600080fd5b60003560e01c8063013cf08b14610e3f57806302a251a314610e215780630d61b51914610c3757806315373e3d146109945780632f338e75146109225780633932abb11461090457806343859632146108af5780634fa76ec91461089157806361d027b3146108685780637cdc2eb7146103755780638da5cb5b1461034c5780639080936f1461031f578063c7f758a814610299578063da35c6641461027b578063dbdf69c314610187578063f2fde38b146101055763f96dae0a146100d757600080fd5b34610100576000366003190112610100576000546040516001600160a01b039091168152602090f35b600080fd5b34610100576020366003190112610100576004356001600160a01b03818116918290036101005761013c6002549182163314611200565b8115610152576001600160a01b03191617600255005b60405162461bcd60e51b815260206004820152600d60248201526c24b73b30b634b21037bbb732b960991b6044820152606490fd5b3461010057602036600319011261010057600435806000526004602052604060002090815490600160a01b6001900392836001820154169360048201541691600582015460068301546007840154600885015491600986015493600a87015460ff16956101f390611197565b9661020060028201610f21565b9060030161020d90610f21565b906040519b8c9b8c5260208c01526101808060408d01528b0161022f91610fea565b8a810360608c015261024091610fea565b9760808a015260a089015260c088015260e087015261010086015261012085015215156101408401526101608301610277916110e3565b0390f35b34610100576000366003190112610100576020600354604051908152f35b346101005760203660031901126101005760043560005260046020526040600020805461027760018060a01b039283600182015416936004820154166005820154600683015460078401549060088501549260098601549460ff600a8801541696610312600361030b60028401610f21565b9201610f21565b906040519b8c9b8c61100f565b3461010057602036600319011261010057602061033d600435611197565b61034a60405180926110e3565bf35b34610100576000366003190112610100576002546040516001600160a01b039091168152602090f35b346101005760803660031901126101005760043567ffffffffffffffff8111610100576103a690369060040161109c565b60243567ffffffffffffffff8111610100576103c690369060040161109c565b906044356001600160a01b03808216820361010057602460208260005416604051928380926370a0823160e01b82523360048301525afa90811561085c5760009161082a575b50156107e557606435156107a0578082161561075b5761042d600354611106565b80600355806000526004602052604060002090815560018101336bffffffffffffffffffffffff60a01b825416179055835167ffffffffffffffff81116106865761047b6002830154610ec5565b601f8111610714575b50806020601f82116001146106a75760009161069c575b508160011b916000199060031b1c19161760028201555b845167ffffffffffffffff8111610686576104d06003830154610ec5565b95601f871161063f575b602096508690601f83116001146105d057600a939291600091836105c5575b50508160011b916000199060031b1c19161760038201555b600481018385166bffffffffffffffffffffffff60a01b82541617905560643560058201556105426005544261112b565b600682015561055f6105566005544261112b565b6006549061112b565b60078201550160ff1981541690557f681515850d74456af78685d0714fbe16c2aae31c969f57374add5e8340018d216003549384926105a960405192606084526060840190610fea565b94606435888401521660408201528033940390a3604051908152f35b0151905088806104f9565b90601f1983169160038501600052886000209260005b8181106106285750916001939185600a9796941061060f575b505050811b016003820155610511565b015160001960f88460031b161c191690558880806105ff565b92938a6001819287860151815501950193016105e6565b600383016000526020600020601f830160051c81016020841061067f575b601f890160051c820181106106735750506104da565b6000815560010161065d565b508061065d565b634e487b7160e01b600052604160045260246000fd5b90508501518761049b565b91506002830160005260206000206000925b601f19831684106106fc576001935082601f198116106106e3575b5050811b0160028201556104b2565b87015160001960f88460031b161c1916905587806106d4565b878101518255602093840193600190920191016106b9565b600283016000526020600020601f830160051c810160208410610754575b601f830160051c82018110610748575050610484565b60008155600101610732565b5080610732565b60405162461bcd60e51b815260206004820152601960248201527f496e76616c696420726563697069656e742061646472657373000000000000006044820152606490fd5b60405162461bcd60e51b815260206004820152601d60248201527f416d6f756e74206d7573742062652067726561746572207468616e20300000006044820152606490fd5b60405162461bcd60e51b815260206004820152601b60248201527f4d75737420686f6c6420746f6b656e7320746f2070726f706f736500000000006044820152606490fd5b90506020813d602011610854575b8161084560209383610eff565b8101031261010057518561040c565b3d9150610838565b6040513d6000823e3d90fd5b34610100576000366003190112610100576001546040516001600160a01b039091168152602090f35b34610100576000366003190112610100576020600754604051908152f35b34610100576040366003190112610100576024356001600160a01b03811690819003610100576004356000526004602052600b60406000200190600052602052602060ff604060002054166040519015158152f35b34610100576000366003190112610100576020600554604051908152f35b34610100576060366003190112610100577f2c8c946a443a21243635e7b49d9cc4961f88942c01d329b33e0ba85544ab59ac60606004356024356044359061097560018060a01b03600254163314611200565b82600555806006558160075560405192835260208301526040820152a1005b346101005760403660031901126101005760043560249081359182151583036101005781600052602090600482526040600020936109d484865414611138565b60068501544210610bfe5760078501544211610bcb57600b8501943360005285845260ff60406000205416610b97576000546040516370a0823160e01b8082523360048301526001600160a01b03909216949086818381895afa90811561085c57600091610b6a575b5015610b33579085916040518096819382523360048301525afa92831561085c57600093610afe575b50610adf9585949392918215610ae957600801610a8484825461112b565b90555b3360005283526040600020600160ff19825416179055600014610ae1576001915b60ff604051931683528201527f2c9deb38f462962eadbd85a9d3a4120503ee091f1582eaaa10aa8c6797651d2960403392a3611238565b005b600091610aa8565b600901610af784825461112b565b9055610a87565b939250908284813d8111610b2c575b610b178183610eff565b81010312610100579251919290610adf610a66565b503d610b0d565b8560116064926040519262461bcd60e51b84526004840152820152704e6f20746f6b656e7320746f20766f746560781b6044820152fd5b90508681813d8311610b90575b610b818183610eff565b81010312610100575189610a3d565b503d610b77565b60405162461bcd60e51b815260048101859052600d818501526c105b1c9958591e481d9bdd1959609a1b6044820152606490fd5b60405162461bcd60e51b815260048101849052600c818401526b159bdd1a5b99c8195b99195960a21b6044820152606490fd5b60405162461bcd60e51b81526004810184905260128184015271159bdd1a5b99c81b9bdd081cdd185c9d195960721b6044820152606490fd5b3461010057602080600319360112610100576004359081600052600481526040600020610c6683825414611138565b60ff600a82015416610de9576008810154906009810154821115610db2576000546040516318160ddd60e01b81529291908490849060049082906001600160a01b03165afa92831561085c57600093610d83575b506064610cc960075485611184565b048210610d4957600701544211918215610d3c575b505015610cee57610adf8261137b565b6084906040519062461bcd60e51b82526004820152602160248201527f566f74696e67206e6f7420656e64656420616e64206e6f206561726c792d77696044820152603760f91b6064820152fd5b60011c1090508380610cde565b60405162461bcd60e51b8152600481018590526012602482015271145d5bdc9d5b481b9bdd081c995858da195960721b6044820152606490fd5b9092508381813d8311610dab575b610d9b8183610eff565b8101031261010057519185610cba565b503d610d91565b60405162461bcd60e51b815260048101849052600f60248201526e141c9bdc1bdcd85b0819985a5b1959608a1b6044820152606490fd5b60405162461bcd60e51b815260048101839052601060248201526f105b1c9958591e48195e1958dd5d195960821b6044820152606490fd5b34610100576000366003190112610100576020600654604051908152f35b346101005760203660031901126101005760043560005260046020526040600020805461027760018060a01b038060018501541693610e8060028201610f21565b91610e8d60038301610f21565b90600483015416600583015460068401549060078501549260088601549460ff600a600989015498015416976040519b8c9b8c61100f565b90600182811c92168015610ef5575b6020831014610edf57565b634e487b7160e01b600052602260045260246000fd5b91607f1691610ed4565b90601f8019910116810190811067ffffffffffffffff82111761068657604052565b9060405191826000825492610f3584610ec5565b908184526001948581169081600014610fa45750600114610f61575b5050610f5f92500383610eff565b565b9093915060005260209081600020936000915b818310610f8c575050610f5f93508201013880610f51565b85548884018501529485019487945091830191610f74565b915050610f5f94506020925060ff191682840152151560051b8201013880610f51565b60005b838110610fda5750506000910152565b8181015183820152602001610fca565b9060209161100381518092818552858086019101610fc7565b601f01601f1916010190565b9996936110496101409a9794611057939e9d9a979e8d528c602060018060a01b0380971691015260408d61016091829101528d0190610fea565b908b820360608d0152610fea565b9a16608089015260a088015260c087015260e08601526101008501526101208401521515910152565b67ffffffffffffffff811161068657601f01601f191660200190565b81601f82011215610100578035906110b382611080565b926110c16040519485610eff565b8284526020838301011161010057816000926020809301838601378301015290565b9060058210156110f05752565b634e487b7160e01b600052602160045260246000fd5b60001981146111155760010190565b634e487b7160e01b600052601160045260246000fd5b9190820180921161111557565b1561113f57565b60405162461bcd60e51b815260206004820152601760248201527f50726f706f73616c20646f6573206e6f742065786973740000000000000000006044820152606490fd5b8181029291811591840414171561111557565b8060005260046020526111b1604060002091825414611138565b60ff600a820154166111fa57600681015442106111f45760078101544211156111ee576009600882015491015410156111e957600390565b600290565b50600190565b50600090565b50600490565b1561120757565b60405162461bcd60e51b81526020600482015260096024820152682737ba1037bbb732b960b91b6044820152606490fd5b600090808252602060048152604083209060ff600a830154166112cd5783546040516318160ddd60e01b81526001600160a01b0395918390829060049082908a165afa91821561136f57809261133c575b505060088301548160011c811190600785015442119060646112b5600988015483119560075490611184565b0411159283611334575b508261131a575b50506112d3575b50505050565b7f4ac304999f90bd686006400016c18b6a3588ea037addc487c33c9ae5c5e22f408391600561131196600486015416940154604051908152a361137b565b388080806112cd565b909150811561132c575b5038806112c6565b905038611324565b9250386112bf565b9091508282813d8311611368575b6113548183610eff565b810103126113655750513880611289565b80fd5b503d61134a565b604051903d90823e3d90fd5b600081815260206004815260408220600a81019060019160ff199083828254161790556113a78661156a565b600283016040519586926d44414f2050726f706f73616c202360901b828501526113da8151809284602e88019101610fc7565b8301906101d160f51b602e830152889280546113f581610ec5565b96818a16918215611549575050600114611508575b505050611420925003601f198101855284610eff565b600560018060a01b03809354169260048301541691015490823b156115045791611477939185809460405196879586948593634dc0f0bf60e11b855260048501526024840152606060448401526064830190610fea565b03925af180156114f9576114ad575b50807f712ae1383f79ac853f8d882153778e0260ef8f03b504e2866e0593e04d2b291f91a2565b67ffffffffffffffff81116114e5576040527f712ae1383f79ac853f8d882153778e0260ef8f03b504e2866e0593e04d2b291f611486565b634e487b7160e01b82526041600452602482fd5b6040513d84823e3d90fd5b8480fd5b9091925088528088208689915b868310611531575050505061142092603091010138808061140a565b80548386016030015289955091830191889101611515565b9150915060309450611420969250168383015280151502010138808061140a565b80156116425780816000925b61162e57508061158583611080565b926115936040519485610eff565b808452601f196115a282611080565b01366020860137905b6115b457505090565b600019810190808211611115578192600a92838204938085029085820414851517156111155782039182116111155760ff80921660300191821161111557855111156116185760f81b6001600160f81b03191660001a908401601f015390816115ab565b634e487b7160e01b600052603260045260246000fd5b9161163a600a91611106565b920480611576565b506040516040810181811067ffffffffffffffff8211176106865760405260018152600360fc1b60208201529056fea26469706673582212206e8ea0472e46a9590baa8f79802242a8e66cc7eefa940a34a4670e79d368ebfa64736f6c63430008130033",
  "linkReferences": {},
  "deployedLinkReferences": {}
}